:100000000C942A000C9447000C9447000C94470071
:100010000C9447000C9447000C9447000C94470044
:100020000C9447000C9447000C9466000C94470015
:100030000C9447000C9447000C9447000C94470024
:100040000C9447000C9447000C9447000C94470014
:100050000C94470011241FBECFE5D8E0DEBFCDBF12
:1000600010E0A0E6B0E0E4E7F1E002C005900D92F8
:10007000A236B107D9F710E0A2E6B0E001C01D92A8
:10008000A636B107E1F70E94B2000C94B8000C94B8
:1000900000008FB780688FBF08958FB78F778FBFAD
:1000A000089583B7886083BF83B78F7B83BF83B78F
:1000B000816083BF83B7826083BF83B78B7F83BF39
:1000C00089B7826089BF8AEF8CBF08951F920F9213
:1000D0000FB60F9211242F933F934F935F936F931B
:1000E0007F938F939F93AF93BF93EF93FF938091F1
:1000F000620090916300A0916400B0916500019648
:10010000A11DB11D8093620090936300A0936400D1
:10011000B093650080529340A040B04069F4E091F4
:100120006000F091610009951092620010926300E6
:100130001092640010926500FF91EF91BF91AF9112
:100140009F918F917F916F915F914F913F912F91EF
:100150000F900FBE0F901F9018958BB391E08927D9
:100160008BBB0895D09A0E9451000E944900FFCF96
:04017000F894FFCF31
:02017400AD00DC
:00000001FF
