:100000000C942A000C9434000C9434000C943400AA
:100010000C9434000C9434000C9434000C94340090
:100020000C9434000C9434000C9434000C94340080
:100030000C9434000C9434000C9434000C94340070
:100040000C9434000C9434000C9434000C94340060
:100050000C94340011241FBECFE5D8E0DEBFCDBF25
:100060000E94E5000C940F010C940000DF93CF93E5
:10007000CDB7DEB7AFE5B0E0EFE5F0E080818068B6
:100080008C93CF91DF910895DF93CF93CDB7DEB7F7
:10009000AFE5B0E0EFE5F0E080818F778C93CF9112
:1000A000DF910895DF93CF93CDB7DEB7ADE2B0E037
:1000B000EDE2F0E0808180628C93ADE2B0E0EDE2B1
:1000C000F0E08081877F8C93ADE2B0E0EDE2F0E07C
:1000D00080818B7F8C93ADE2B0E0EDE2F0E0818136
:1000E0008E7F11968C93ADE2B0E0EDE2F0E080817E
:1000F0008E7F8C93ADE2B0E0EDE2F0E08081826033
:100100008C93ADE2B0E0EDE2F0E0808180618C9311
:10011000ADE2B0E0EDE2F0E0808180648C93CF91BD
:10012000DF910895DF93CF9300D0CDB7DEB78A83F8
:100130008A818983EDE2F0E089818283EDE2F0E05B
:1001400081818823DCF70F900F90CF91DF91089584
:10015000DF93CF93CDB7DEB7ADE2B0E0EDE2F0E0F4
:10016000808180628C93ADE2B0E0EDE2F0E08081CE
:10017000877F8C93ADE2B0E0EDE2F0E080818B7F91
:100180008C93ADE2B0E0EDE2F0E080818F7E8C9365
:10019000ADE2B0E0EDE2F0E0808180648C93CF913D
:1001A000DF910895DF93CF930F92CDB7DEB7EDE2E5
:1001B000F0E082818983EDE2F0E081818823DCF741
:1001C00089810F90CF91DF910895DF93CF930F92A4
:1001D000CDB7DEB7A7E3B0E0E7E3F0E080818F774B
:1001E0008C93A7E3B0E0E7E3F0E080818F7D8C9310
:1001F000A7E3B0E0E7E3F0E080818F7E8C93A7E394
:10020000B0E0E7E3F0E0808180648C930E94A80076
:100210000E94D200898389810E949200F9CFF894CC
:02022000FFCF0E
:00000001FF
