:100000000C942A000C9434000C9434000C943400AA
:100010000C9434000C9434000C9434000C94340090
:100020000C9434000C9434000C9434000C94340080
:100030000C9434000C9434000C9434000C94340070
:100040000C9434000C9434000C9434000C94340060
:100050000C94340011241FBECFE5D8E0DEBFCDBF25
:100060000E9455000C9465000C9400008FB78068C6
:100070008FBF08958FB78F778FBF08956D9A6B9854
:100080006A9870986898699A6C9A6E9A08958FB970
:10009000779BFECF08956D9A6B986A986C986E9ACC
:1000A00008958FB1779BFECF0895D09AD898BF98C6
:1000B000BD98BC98BE9A0E944B000E9451008823B4
:0E00C00011F0D89AFACFD898F8CFF894FFCF65
:00000001FF
