:100000000C942A000C943C000C943C000C943C0092
:100010000C943C000C943C000C943C000C943C0070
:100020000C943C000C943C000C943C000C943C0060
:100030000C943C000C943C000C943C000C943C0050
:100040000C943C000C943C000C943C000C943C0040
:100050000C943C0011241FBECFE5D8E0DEBFCDBF1D
:1000600010E0A0E6B0E001C01D92A236B107E1F7B2
:100070000E9478010C94A2020C940000683008F0F1
:1000800072C04423D1F58130A1F0813030F082304C
:10009000E1F0833009F067C024C02AB381E090E02A
:1000A00002C0880F991F6A95E2F7809582238ABB68
:1000B000089527B381E090E002C0880F991F6A95E8
:1000C000E2F78095822387BB089524B381E090E016
:1000D00002C0880F991F6A95E2F78095822384BB3E
:1000E000089521B381E090E002C0880F991F6A95BE
:1000F000E2F78095822381BB08954130A1F58130DC
:1001000091F0813028F08230C9F0833061F521C050
:100110002AB381E090E002C0880F991F6A95E2F748
:10012000282B2ABB089527B381E090E002C0880FF6
:10013000991F6A95E2F7282B27BB089524B381E025
:1001400090E002C0880F991F6A95E2F7282B24BB24
:10015000089521B381E090E002C0880F991F6A954D
:10016000E2F7282B21BB0895683008F072C04130B7
:10017000B1F5813099F0813030F08230D1F08330A8
:1001800009F067C021C02BB381E090E002C0880F66
:10019000991F6A95E2F7282B2BBB089528B381E0BD
:1001A00090E002C0880F991F6A95E2F7282B28BBC0
:1001B000089525B381E090E002C0880F991F6A95E9
:1001C000E2F7282B25BB089522B381E090E002C01E
:1001D000880F991F6A95E2F7282B22BB08954423C4
:1001E000C1F5813099F0813028F08230D9F0833028
:1001F00081F524C02BB381E090E002C0880F991FE5
:100200006A95E2F7809582238BBB089528B381E03D
:1002100090E002C0880F991F6A95E2F780958223CB
:1002200088BB089525B381E090E002C0880F991F34
:100230006A95E2F78095822385BB089522B381E019
:1002400090E002C0880F991F6A95E2F7809582239B
:1002500082BB08956830C0F4813049F0813028F0C5
:10026000823039F0833081F406C089B305C086B38B
:1002700003C083B301C080B390E002C09595879519
:100280006A95E2F78170089580E00895813049F021
:10029000813028F0823039F0833041F406C06ABBE7
:1002A000089567BB089564BB089561BB08958130CC
:1002B00049F0813028F0823029F0833031F404C0D5
:1002C0006BBB089565BB089562BB0895813051F002
:1002D000813030F0823041F0833041F080E0089589
:1002E00089B3089586B3089583B3089580B30895BC
:1002F00082E00E94530282E063E670E00E94810186
:10030000FACF0F931F93282F809160009091610086
:10031000019690936100809360008617970721F4FF
:100320001092610010926000213099F1213038F074
:10033000223009F458C0233009F0B2C07EC081E0F9
:1003400060E040E00E94B400809160009091610004
:100350006AE070E00E947B0280E00E94570100E2A8
:100360001EE4C8010197F1F781E060E041E00E94DE
:10037000B40081E061E040E00E94B4008091600040
:10038000909161006AE070E00E947B02682F80E03B
:100390007DC081E060E040E00E94B4008091600098
:1003A000909161006AE070E00E947B0281E00E940F
:1003B000570100E21EE4C8010197F1F781E060E017
:1003C00041E00E94B40081E061E040E00E94B4009E
:1003D00080916000909161006AE070E00E947B0271
:1003E000682F81E053C081E060E040E00E94B400EB
:1003F00080916000909161006AE070E00E947B0251
:1004000082E00E94570100E21EE4C8010197F1F763
:1004100081E060E041E00E94B40081E061E040E002
:100420000E94B40080916000909161006AE070E0E9
:100430000E947B02682F82E029C081E060E040E0FA
:100440000E94B40080916000909161006AE070E0C9
:100450000E947B0283E00E94570100E21EE4C80173
:100460000197F1F781E060E041E00E94B40081E093
:1004700061E040E00E94B4008091600090916100D2
:100480006AE070E00E947B02682F83E00E945701BF
:10049000C8010197F1F781E061E041E00E94B400FA
:1004A0001F910F9108951F93182F81E060E041E0A4
:1004B0000E943E0081E061E041E00E943E00113078
:1004C00059F0113028F0123059F0133091F40CC06B
:1004D0006BB3616080E00BC068B3616081E007C00E
:1004E00065B3616082E003C062B3616083E00E9433
:1004F00046011F91089597FB092E07260AD077FD24
:1005000004D00CD006D000201AF4709561957F4F6E
:100510000895F6F7909581959F4F0895AA1BBB1BF0
:1005200051E107C0AA1FBB1FA617B70710F0A61BF3
:10053000B70B881F991F5A95A9F780959095BC0114
:08054000CD010895F894FFCFEE
:00000001FF
