:100000000C942A000C9447000C9447000C94470071
:100010000C9447000C9447000C9447000C94470044
:100020000C9447000C9447000C94AA000C944700D1
:100030000C9447000C9447000C9447000C94470024
:100040000C9447000C9447000C9447000C94470014
:100050000C94470011241FBECFE5D8E0DEBFCDBF12
:1000600010E0A0E6B0E0E6EEF1E002C005900D92EF
:10007000A236B107D9F710E0A2E6B0E001C01D92A8
:10008000A336B107E1F70E9465000C94F1000C94CF
:100090000000DF93CF93CDB7DEB7AFE5B0E0EFE57B
:1000A000F0E0808180688C93CF91DF910895DF9399
:1000B000CF93CDB7DEB7AFE5B0E0EFE5F0E08081FC
:1000C0008F778C93CF91DF910895DF93CF93CDB746
:1000D000DEB7AAE3B0E0EAE3F0E0808181608C93D0
:1000E0000E9475000E944900FFCFDF93CF93CDB7E8
:1000F000DEB7A3E5B0E0E3E5F0E0808188608C93B3
:10010000A3E5B0E0E3E5F0E080818F7B8C93A3E58D
:10011000B0E0E3E5F0E0808181608C93A3E5B0E09E
:10012000E3E5F0E0808182608C93A3E5B0E0E3E555
:10013000F0E080818B7F8C93A9E5B0E0E9E5F0E009
:10014000808182608C93ECE5F0E08AEF8083CF9130
:10015000DF9108951F920F920FB60F9211242F93E3
:100160003F934F935F936F937F938F939F93AF933F
:10017000BF93EF93FF93DF93CF93CDB7DEB780911B
:1001800062008F5F80936200809162008A3F39F441
:10019000E0916000F0916100099510926200CF91AA
:1001A000DF91FF91EF91BF91AF919F918F917F91DF
:1001B0006F915F914F913F912F910F900FBE0F90D4
:1001C0001F901895DF93CF93CDB7DEB7ABE3B0E0C8
:1001D000EBE3F0E0908181E089278C93CF91DF9170
:0601E0000895F894FFCF22
:0201E600E20035
:00000001FF
