:100000000C942A000C9434000C9434000C943400AA
:100010000C9434000C9434000C9434000C94340090
:100020000C9434000C9434000C9434000C94340080
:100030000C9434000C9434000C9434000C94340070
:100040000C9434000C9434000C9434000C94340060
:100050000C94340011241FBECFE5D8E0DEBFCDBF25
:100060000E94E5000C942D010C940000DF93CF93C7
:10007000CDB7DEB7AFE5B0E0EFE5F0E080818068B6
:100080008C93CF91DF910895DF93CF93CDB7DEB7F7
:10009000AFE5B0E0EFE5F0E080818F778C93CF9112
:1000A000DF910895DF93CF93CDB7DEB7ADE2B0E037
:1000B000EDE2F0E0808180628C93ADE2B0E0EDE2B1
:1000C000F0E08081877F8C93ADE2B0E0EDE2F0E07C
:1000D00080818B7F8C93ADE2B0E0EDE2F0E0818136
:1000E0008E7F11968C93ADE2B0E0EDE2F0E080817E
:1000F0008E7F8C93ADE2B0E0EDE2F0E08081826033
:100100008C93ADE2B0E0EDE2F0E0808180618C9311
:10011000ADE2B0E0EDE2F0E0808180648C93CF91BD
:10012000DF910895DF93CF9300D0CDB7DEB78A83F8
:100130008A818983EDE2F0E089818283EDE2F0E05B
:1001400081818823DCF70F900F90CF91DF91089584
:10015000DF93CF93CDB7DEB7ADE2B0E0EDE2F0E0F4
:10016000808180628C93ADE2B0E0EDE2F0E08081CE
:10017000877F8C93ADE2B0E0EDE2F0E080818B7F91
:100180008C93ADE2B0E0EDE2F0E080818F7E8C9365
:10019000ADE2B0E0EDE2F0E0808180648C93CF913D
:1001A000DF910895DF93CF930F92CDB7DEB7EDE2E5
:1001B000F0E082818983EDE2F0E081818823DCF741
:1001C00089810F90CF91DF910895DF93CF930F92A4
:1001D000CDB7DEB7AAE3B0E0EAE3F0E080818E7F3E
:1001E0008C93ABE3B0E0EBE3F0E0808181608C9333
:1001F000A7E3B0E0E7E3F0E0808180688C93A7E3B9
:10020000B0E0E7E3F0E080818F7B8C93A7E3B0E080
:10021000E7E3F0E0808180628C93A7E3B0E0E7E35E
:10022000F0E0808180618C93A8E3B0E0E8E3F0E047
:1002300080818F7E8C930E945200E9E3F0E0808100
:10024000817089838981882321F481E00E94920052
:0E025000F4CF80E00E949200F0CFF894FFCF30
:00000001FF
