:100000000C942A000C9434000C9434000C943400AA
:100010000C9434000C9434000C9434000C94340090
:100020000C9434000C9434000C9434000C94340080
:100030000C9434000C9434000C9434000C94340070
:100040000C9434000C9434000C9434000C94340060
:100050000C94340011241FBECFE5D8E0DEBFCDBF25
:100060000E9455000C946C000C9400008FB78068BF
:100070008FBF08958FB78F778FBF08956D9A6B9854
:100080006A9870986898699A6C9A6E9A08958FB970
:10009000779BFECF08956D9A6B986A986C986E9ACC
:1000A00008958FB1779BFECF0895D098D89ABF9AC4
:1000B000BE98BD9ABC9AC4980E943E00C89905C0DB
:1000C00081E00E94470081E004C080E00E94470078
:0C00D00080E00E944700F2CFF894FFCFC0
:00000001FF
